{
  "_format": "hh-sol-artifact-1",
  "contractName": "AtmenSwap",
  "sourceName": "contracts/samples/AtmenSwap.sol",
  "abi": [
    {
      "inputs": [
        {
          "internalType": "address",
          "name": "_entryPoint",
          "type": "address"
        }
      ],
      "stateMutability": "nonpayable",
      "type": "constructor"
    },
    {
      "anonymous": false,
      "inputs": [
        {
          "indexed": true,
          "internalType": "bytes32",
          "name": "commitID",
          "type": "bytes32"
        },
        {
          "indexed": true,
          "internalType": "bytes32",
          "name": "secret",
          "type": "bytes32"
        }
      ],
      "name": "Close",
      "type": "event"
    },
    {
      "anonymous": false,
      "inputs": [
        {
          "indexed": true,
          "internalType": "bytes32",
          "name": "commitID",
          "type": "bytes32"
        }
      ],
      "name": "Expire",
      "type": "event"
    },
    {
      "anonymous": false,
      "inputs": [
        {
          "indexed": true,
          "internalType": "bytes32",
          "name": "commitID",
          "type": "bytes32"
        }
      ],
      "name": "Open",
      "type": "event"
    },
    {
      "inputs": [],
      "name": "MAX_USER_OP_GAS_PRICE",
      "outputs": [
        {
          "internalType": "uint256",
          "name": "",
          "type": "uint256"
        }
      ],
      "stateMutability": "view",
      "type": "function"
    },
    {
      "inputs": [],
      "name": "MINIMUM_SWAP_VALUE",
      "outputs": [
        {
          "internalType": "uint256",
          "name": "",
          "type": "uint256"
        }
      ],
      "stateMutability": "view",
      "type": "function"
    },
    {
      "inputs": [],
      "name": "REVEAL_SELECTOR",
      "outputs": [
        {
          "internalType": "bytes4",
          "name": "",
          "type": "bytes4"
        }
      ],
      "stateMutability": "view",
      "type": "function"
    },
    {
      "inputs": [
        {
          "internalType": "bytes32",
          "name": "commitID",
          "type": "bytes32"
        },
        {
          "internalType": "bytes32",
          "name": "secret",
          "type": "bytes32"
        }
      ],
      "name": "close",
      "outputs": [],
      "stateMutability": "nonpayable",
      "type": "function"
    },
    {
      "inputs": [
        {
          "internalType": "bytes32",
          "name": "secret",
          "type": "bytes32"
        }
      ],
      "name": "commitmentFromSecret",
      "outputs": [
        {
          "internalType": "bytes32",
          "name": "",
          "type": "bytes32"
        }
      ],
      "stateMutability": "pure",
      "type": "function"
    },
    {
      "inputs": [
        {
          "internalType": "bytes32",
          "name": "",
          "type": "bytes32"
        }
      ],
      "name": "commitments",
      "outputs": [
        {
          "internalType": "uint256",
          "name": "",
          "type": "uint256"
        }
      ],
      "stateMutability": "view",
      "type": "function"
    },
    {
      "inputs": [],
      "name": "entryPoint",
      "outputs": [
        {
          "internalType": "contract IEntryPoint",
          "name": "",
          "type": "address"
        }
      ],
      "stateMutability": "view",
      "type": "function"
    },
    {
      "inputs": [
        {
          "internalType": "bytes32",
          "name": "commitID",
          "type": "bytes32"
        }
      ],
      "name": "expire",
      "outputs": [],
      "stateMutability": "nonpayable",
      "type": "function"
    },
    {
      "inputs": [],
      "name": "getNonce",
      "outputs": [
        {
          "internalType": "uint256",
          "name": "",
          "type": "uint256"
        }
      ],
      "stateMutability": "view",
      "type": "function"
    },
    {
      "inputs": [
        {
          "internalType": "bytes32",
          "name": "commitID",
          "type": "bytes32"
        },
        {
          "internalType": "uint256",
          "name": "timelock",
          "type": "uint256"
        },
        {
          "internalType": "address payable",
          "name": "recipient",
          "type": "address"
        },
        {
          "internalType": "address",
          "name": "tokenAddress",
          "type": "address"
        },
        {
          "internalType": "uint256",
          "name": "value",
          "type": "uint256"
        }
      ],
      "name": "openERC20Swap",
      "outputs": [],
      "stateMutability": "payable",
      "type": "function"
    },
    {
      "inputs": [
        {
          "internalType": "bytes32",
          "name": "commitID",
          "type": "bytes32"
        },
        {
          "internalType": "uint256",
          "name": "timelock",
          "type": "uint256"
        },
        {
          "internalType": "address payable",
          "name": "recipient",
          "type": "address"
        }
      ],
      "name": "openETHSwap",
      "outputs": [],
      "stateMutability": "payable",
      "type": "function"
    },
    {
      "inputs": [
        {
          "internalType": "bytes32",
          "name": "commitID",
          "type": "bytes32"
        },
        {
          "internalType": "bytes32",
          "name": "secret",
          "type": "bytes32"
        }
      ],
      "name": "reveal",
      "outputs": [],
      "stateMutability": "nonpayable",
      "type": "function"
    },
    {
      "inputs": [
        {
          "internalType": "bytes32",
          "name": "",
          "type": "bytes32"
        }
      ],
      "name": "swaps",
      "outputs": [
        {
          "internalType": "address",
          "name": "tokenContract",
          "type": "address"
        },
        {
          "internalType": "uint256",
          "name": "value",
          "type": "uint256"
        },
        {
          "internalType": "address payable",
          "name": "sender",
          "type": "address"
        },
        {
          "internalType": "address payable",
          "name": "recipient",
          "type": "address"
        }
      ],
      "stateMutability": "view",
      "type": "function"
    },
    {
      "inputs": [
        {
          "components": [
            {
              "internalType": "address",
              "name": "sender",
              "type": "address"
            },
            {
              "internalType": "uint256",
              "name": "nonce",
              "type": "uint256"
            },
            {
              "internalType": "bytes",
              "name": "initCode",
              "type": "bytes"
            },
            {
              "internalType": "bytes",
              "name": "callData",
              "type": "bytes"
            },
            {
              "internalType": "uint256",
              "name": "callGasLimit",
              "type": "uint256"
            },
            {
              "internalType": "uint256",
              "name": "verificationGasLimit",
              "type": "uint256"
            },
            {
              "internalType": "uint256",
              "name": "preVerificationGas",
              "type": "uint256"
            },
            {
              "internalType": "uint256",
              "name": "maxFeePerGas",
              "type": "uint256"
            },
            {
              "internalType": "uint256",
              "name": "maxPriorityFeePerGas",
              "type": "uint256"
            },
            {
              "internalType": "bytes",
              "name": "paymasterAndData",
              "type": "bytes"
            },
            {
              "internalType": "bytes",
              "name": "signature",
              "type": "bytes"
            }
          ],
          "internalType": "struct UserOperation",
          "name": "userOp",
          "type": "tuple"
        }
      ],
      "name": "validateSignature_test",
      "outputs": [
        {
          "internalType": "bool",
          "name": "",
          "type": "bool"
        }
      ],
      "stateMutability": "view",
      "type": "function"
    },
    {
      "inputs": [
        {
          "components": [
            {
              "internalType": "address",
              "name": "sender",
              "type": "address"
            },
            {
              "internalType": "uint256",
              "name": "nonce",
              "type": "uint256"
            },
            {
              "internalType": "bytes",
              "name": "initCode",
              "type": "bytes"
            },
            {
              "internalType": "bytes",
              "name": "callData",
              "type": "bytes"
            },
            {
              "internalType": "uint256",
              "name": "callGasLimit",
              "type": "uint256"
            },
            {
              "internalType": "uint256",
              "name": "verificationGasLimit",
              "type": "uint256"
            },
            {
              "internalType": "uint256",
              "name": "preVerificationGas",
              "type": "uint256"
            },
            {
              "internalType": "uint256",
              "name": "maxFeePerGas",
              "type": "uint256"
            },
            {
              "internalType": "uint256",
              "name": "maxPriorityFeePerGas",
              "type": "uint256"
            },
            {
              "internalType": "bytes",
              "name": "paymasterAndData",
              "type": "bytes"
            },
            {
              "internalType": "bytes",
              "name": "signature",
              "type": "bytes"
            }
          ],
          "internalType": "struct UserOperation",
          "name": "userOp",
          "type": "tuple"
        },
        {
          "internalType": "bytes32",
          "name": "userOpHash",
          "type": "bytes32"
        },
        {
          "internalType": "uint256",
          "name": "missingAccountFunds",
          "type": "uint256"
        }
      ],
      "name": "validateUserOp",
      "outputs": [
        {
          "internalType": "uint256",
          "name": "validationData",
          "type": "uint256"
        }
      ],
      "stateMutability": "nonpayable",
      "type": "function"
    },
    {
      "stateMutability": "payable",
      "type": "receive"
    }
  ],
  "bytecode": "0x610120604052600073ffffffffffffffffffffffffffffffffffffffff1660a09073ffffffffffffffffffffffffffffffffffffffff1681525063fc334e8c60e01b7bffffffffffffffffffffffffffffffffffffffffffffffffffffffff191660c0907bffffffffffffffffffffffffffffffffffffffffffffffffffffffff191681525066038d7ea4c6800060e090815250601e61010090815250348015620000a957600080fd5b5060405162002ecb38038062002ecb8339818101604052810190620000cf919062000176565b808073ffffffffffffffffffffffffffffffffffffffff1660808173ffffffffffffffffffffffffffffffffffffffff16815250505050620001a8565b600080fd5b600073ffffffffffffffffffffffffffffffffffffffff82169050919050565b60006200013e8262000111565b9050919050565b620001508162000131565b81146200015c57600080fd5b50565b600081519050620001708162000145565b92915050565b6000602082840312156200018f576200018e6200010c565b5b60006200019f848285016200015f565b91505092915050565b60805160a05160c05160e05161010051612ca66200022560003960008181610427015281816115b701526119520152600081816103b8015281816104e4015261084e015260008181610cca01526111a0015260008181610553015281816107c00152818161154301526118de01526000610ca40152612ca66000f3fe6080604052600436106100ec5760003560e01c8063a1d6fb141161008a578063d087d28811610059578063d087d288146102f9578063eb84e7f214610324578063f10ca95a14610364578063fc334e8c1461038d576100f3565b8063a1d6fb141461023d578063b0d691fe1461027a578063bd70dc2f146102a5578063c6441798146102d0576100f3565b80633f3a9556116100c65780633f3a95561461019d57806378c00b70146101c8578063839df945146101e457806395e3c49514610221576100f3565b806323df5589146100f857806338f05f60146101235780633a871cdd14610160576100f3565b366100f357005b600080fd5b34801561010457600080fd5b5061010d6103b6565b60405161011a9190611c16565b60405180910390f35b34801561012f57600080fd5b5061014a60048036038101906101459190611c60565b6103da565b6040516101579190611cc4565b60405180910390f35b34801561016c57600080fd5b5061018760048036038101906101829190611d41565b6103f2565b6040516101949190611c16565b60405180910390f35b3480156101a957600080fd5b506101b2610425565b6040516101bf9190611c16565b60405180910390f35b6101e260048036038101906101dd9190611e0e565b610449565b005b3480156101f057600080fd5b5061020b60048036038101906102069190611e61565b61070d565b6040516102189190611c16565b60405180910390f35b61023b60048036038101906102369190611ecc565b610725565b005b34801561024957600080fd5b50610264600480360381019061025f9190611e61565b610c1f565b6040516102719190611f56565b60405180910390f35b34801561028657600080fd5b5061028f610ca0565b60405161029c9190611fd0565b60405180910390f35b3480156102b157600080fd5b506102ba610cc8565b6040516102c79190612026565b60405180910390f35b3480156102dc57600080fd5b506102f760048036038101906102f29190611e61565b610cec565b005b34801561030557600080fd5b5061030e610dec565b60405161031b9190611c16565b60405180910390f35b34801561033057600080fd5b5061034b60048036038101906103469190611e61565b610e77565b60405161035b949392919061205f565b60405180910390f35b34801561037057600080fd5b5061038b600480360381019061038691906120a4565b610f07565b005b34801561039957600080fd5b506103b460048036038101906103af91906120a4565b611056565b005b7f000000000000000000000000000000000000000000000000000000000000000081565b6000806103ea836000801b611160565b149050919050565b60006103fc61126a565b6104068484611160565b905061041584602001356112e1565b61041e826112e4565b9392505050565b7f000000000000000000000000000000000000000000000000000000000000000081565b8282600080600084815260200190815260200160002054146104a0576040517f08c379a000000000000000000000000000000000000000000000000000000000815260040161049790612141565b60405180910390fd5b4281116104e2576040517f08c379a00000000000000000000000000000000000000000000000000000000081526004016104d9906121d3565b60405180910390fd5b7f00000000000000000000000000000000000000000000000000000000000000003411610544576040517f08c379a000000000000000000000000000000000000000000000000000000000815260040161053b9061223f565b60405180910390fd5b600060405180608001604052807f000000000000000000000000000000000000000000000000000000000000000073ffffffffffffffffffffffffffffffffffffffff1681526020013481526020013373ffffffffffffffffffffffffffffffffffffffff1681526020018573ffffffffffffffffffffffffffffffffffffffff168152509050806001600088815260200190815260200160002060008201518160000160006101000a81548173ffffffffffffffffffffffffffffffffffffffff021916908373ffffffffffffffffffffffffffffffffffffffff1602179055506020820151816001015560408201518160020160006101000a81548173ffffffffffffffffffffffffffffffffffffffff021916908373ffffffffffffffffffffffffffffffffffffffff16021790555060608201518160030160006101000a81548173ffffffffffffffffffffffffffffffffffffffff021916908373ffffffffffffffffffffffffffffffffffffffff160217905550905050508060008084815260200190815260200160002081905550817fddffb592d6434d02d388cf2eb4fbfa796fbfcd09e278d3466e7194dfd3c23a0460405160405180910390a25050505050565b60006020528060005260406000206000915090505481565b84846000806000848152602001908152602001600020541461077c576040517f08c379a000000000000000000000000000000000000000000000000000000000815260040161077390612141565b60405180910390fd5b4281116107be576040517f08c379a00000000000000000000000000000000000000000000000000000000081526004016107b5906121d3565b60405180910390fd5b7f000000000000000000000000000000000000000000000000000000000000000073ffffffffffffffffffffffffffffffffffffffff168473ffffffffffffffffffffffffffffffffffffffff160361084c576040517f08c379a0000000000000000000000000000000000000000000000000000000008152600401610843906122d1565b60405180910390fd5b7f000000000000000000000000000000000000000000000000000000000000000034116108ae576040517f08c379a00000000000000000000000000000000000000000000000000000000081526004016108a59061223f565b60405180910390fd5b600083116108f1576040517f08c379a00000000000000000000000000000000000000000000000000000000081526004016108e89061233d565b60405180910390fd5b6000849050838173ffffffffffffffffffffffffffffffffffffffff1663dd62ed3e33306040518363ffffffff1660e01b815260040161093292919061235d565b602060405180830381865afa15801561094f573d6000803e3d6000fd5b505050506040513d601f19601f82011682018060405250810190610973919061239b565b10156109b4576040517f08c379a00000000000000000000000000000000000000000000000000000000081526004016109ab90612414565b60405180910390fd5b8073ffffffffffffffffffffffffffffffffffffffff166323b872dd3330876040518463ffffffff1660e01b81526004016109f193929190612434565b6020604051808303816000875af1158015610a10573d6000803e3d6000fd5b505050506040513d601f19601f82011682018060405250810190610a349190612497565b610a73576040517f08c379a0000000000000000000000000000000000000000000000000000000008152600401610a6a90612510565b60405180910390fd5b600060405180608001604052808773ffffffffffffffffffffffffffffffffffffffff1681526020018681526020013373ffffffffffffffffffffffffffffffffffffffff1681526020018873ffffffffffffffffffffffffffffffffffffffff16815250905080600160008b815260200190815260200160002060008201518160000160006101000a81548173ffffffffffffffffffffffffffffffffffffffff021916908373ffffffffffffffffffffffffffffffffffffffff1602179055506020820151816001015560408201518160020160006101000a81548173ffffffffffffffffffffffffffffffffffffffff021916908373ffffffffffffffffffffffffffffffffffffffff16021790555060608201518160030160006101000a81548173ffffffffffffffffffffffffffffffffffffffff021916908373ffffffffffffffffffffffffffffffffffffffff16021790555090505050508060008084815260200190815260200160002081905550817fddffb592d6434d02d388cf2eb4fbfa796fbfcd09e278d3466e7194dfd3c23a0460405160405180910390a250505050505050565b600073__$5f19c238fadfea8c28c94a667c7d37204f$__63a1d6fb14836040518263ffffffff1660e01b8152600401610c58919061253f565b602060405180830381865af4158015610c75573d6000803e3d6000fd5b505050506040513d601f19601f82011682018060405250810190610c99919061256f565b9050919050565b60007f0000000000000000000000000000000000000000000000000000000000000000905090565b7f000000000000000000000000000000000000000000000000000000000000000081565b8060008060008381526020019081526020016000205411610d42576040517f08c379a0000000000000000000000000000000000000000000000000000000008152600401610d39906125e8565b60405180910390fd5b600080600083815260200190815260200160002054905060008083815260200190815260200160002060009055428110610db1576040517f08c379a0000000000000000000000000000000000000000000000000000000008152600401610da890612654565b60405180910390fd5b610dba83611380565b817fbddd9b693ea862fad6ecf78fd51c065be26fda94d1f3cad3a7d691453a38a73560405160405180910390a2505050565b6000610df6610ca0565b73ffffffffffffffffffffffffffffffffffffffff166335567e1a3060006040518363ffffffff1660e01b8152600401610e319291906126d3565b602060405180830381865afa158015610e4e573d6000803e3d6000fd5b505050506040513d601f19601f82011682018060405250810190610e72919061239b565b905090565b60016020528060005260406000206000915090508060000160009054906101000a900473ffffffffffffffffffffffffffffffffffffffff16908060010154908060020160009054906101000a900473ffffffffffffffffffffffffffffffffffffffff16908060030160009054906101000a900473ffffffffffffffffffffffffffffffffffffffff16905084565b818160008060008481526020019081526020016000205411610f5e576040517f08c379a0000000000000000000000000000000000000000000000000000000008152600401610f55906125e8565b60405180910390fd5b60008060008481526020019081526020016000205490506000808481526020019081526020016000206000905542811015610fce576040517f08c379a0000000000000000000000000000000000000000000000000000000008152600401610fc590612748565b60405180910390fd5b82610fd883610c1f565b14611018576040517f08c379a000000000000000000000000000000000000000000000000000000000815260040161100f906127b4565b60405180910390fd5b6110218561171b565b81837f842eb23b01edb198a935f6cf1ead8ec295651395574206ce5787d42293c5b43060405160405180910390a35050505050565b61105e61126a565b600080600084815260200190815260200160002054116110b3576040517f08c379a00000000000000000000000000000000000000000000000000000000081526004016110aa90612820565b60405180910390fd5b60008060008481526020019081526020016000205490506000808481526020019081526020016000206000905542811115611124576110f18361171b565b81837f842eb23b01edb198a935f6cf1ead8ec295651395574206ce5787d42293c5b43060405160405180910390a361115b565b61112d83611380565b827fbddd9b693ea862fad6ecf78fd51c065be26fda94d1f3cad3a7d691453a38a73560405160405180910390a25b505050565b600061116c8383611afa565b50600083806060019061117f919061284f565b604090604492611191939291906128bc565b9061119c919061290f565b90507f00000000000000000000000000000000000000000000000000000000000000007bffffffffffffffffffffffffffffffffffffffffffffffffffffffff1916817bffffffffffffffffffffffffffffffffffffffffffffffffffffffff19161461120d576001915050611264565b600061121885611ba9565b90503a81111561125d576040517f08c379a0000000000000000000000000000000000000000000000000000000008152600401611254906129ba565b60405180910390fd5b6000925050505b92915050565b611272610ca0565b73ffffffffffffffffffffffffffffffffffffffff163373ffffffffffffffffffffffffffffffffffffffff16146112df576040517f08c379a00000000000000000000000000000000000000000000000000000000081526004016112d690612a26565b60405180910390fd5b565b50565b6000811461137d5760003373ffffffffffffffffffffffffffffffffffffffff16827fffffffffffffffffffffffffffffffffffffffffffffffffffffffffffffffff9060405161133490612a77565b600060405180830381858888f193505050503d8060008114611372576040519150601f19603f3d011682016040523d82523d6000602084013e611377565b606091505b50509050505b50565b6000600160008381526020019081526020016000206040518060800160405290816000820160009054906101000a900473ffffffffffffffffffffffffffffffffffffffff1673ffffffffffffffffffffffffffffffffffffffff1673ffffffffffffffffffffffffffffffffffffffff168152602001600182015481526020016002820160009054906101000a900473ffffffffffffffffffffffffffffffffffffffff1673ffffffffffffffffffffffffffffffffffffffff1673ffffffffffffffffffffffffffffffffffffffff1681526020016003820160009054906101000a900473ffffffffffffffffffffffffffffffffffffffff1673ffffffffffffffffffffffffffffffffffffffff1673ffffffffffffffffffffffffffffffffffffffff1681525050905060016000838152602001908152602001600020600080820160006101000a81549073ffffffffffffffffffffffffffffffffffffffff021916905560018201600090556002820160006101000a81549073ffffffffffffffffffffffffffffffffffffffff02191690556003820160006101000a81549073ffffffffffffffffffffffffffffffffffffffff021916905550507f000000000000000000000000000000000000000000000000000000000000000073ffffffffffffffffffffffffffffffffffffffff16816000015173ffffffffffffffffffffffffffffffffffffffff160361167d576000816040015173ffffffffffffffffffffffffffffffffffffffff167f000000000000000000000000000000000000000000000000000000000000000083602001516115e59190612abb565b6040516115f190612a77565b60006040518083038185875af1925050503d806000811461162e576040519150601f19603f3d011682016040523d82523d6000602084013e611633565b606091505b5050905080611677576040517f08c379a000000000000000000000000000000000000000000000000000000000815260040161166e90612b3b565b60405180910390fd5b50611717565b6000816000015190508073ffffffffffffffffffffffffffffffffffffffff1663a9059cbb836040015184602001516040518363ffffffff1660e01b81526004016116c9929190612b7c565b6020604051808303816000875af11580156116e8573d6000803e3d6000fd5b505050506040513d601f19601f8201168201806040525081019061170c9190612497565b61171557600080fd5b505b5050565b6000600160008381526020019081526020016000206040518060800160405290816000820160009054906101000a900473ffffffffffffffffffffffffffffffffffffffff1673ffffffffffffffffffffffffffffffffffffffff1673ffffffffffffffffffffffffffffffffffffffff168152602001600182015481526020016002820160009054906101000a900473ffffffffffffffffffffffffffffffffffffffff1673ffffffffffffffffffffffffffffffffffffffff1673ffffffffffffffffffffffffffffffffffffffff1681526020016003820160009054906101000a900473ffffffffffffffffffffffffffffffffffffffff1673ffffffffffffffffffffffffffffffffffffffff1673ffffffffffffffffffffffffffffffffffffffff1681525050905060016000838152602001908152602001600020600080820160006101000a81549073ffffffffffffffffffffffffffffffffffffffff021916905560018201600090556002820160006101000a81549073ffffffffffffffffffffffffffffffffffffffff02191690556003820160006101000a81549073ffffffffffffffffffffffffffffffffffffffff021916905550507f000000000000000000000000000000000000000000000000000000000000000073ffffffffffffffffffffffffffffffffffffffff16816000015173ffffffffffffffffffffffffffffffffffffffff1603611a18576000816060015173ffffffffffffffffffffffffffffffffffffffff167f000000000000000000000000000000000000000000000000000000000000000083602001516119809190612abb565b60405161198c90612a77565b60006040518083038185875af1925050503d80600081146119c9576040519150601f19603f3d011682016040523d82523d6000602084013e6119ce565b606091505b5050905080611a12576040517f08c379a0000000000000000000000000000000000000000000000000000000008152600401611a0990612b3b565b60405180910390fd5b50611af6565b6000341015611a5c576040517f08c379a0000000000000000000000000000000000000000000000000000000008152600401611a5390612bf1565b60405180910390fd5b6000816000015190508073ffffffffffffffffffffffffffffffffffffffff1663a9059cbb836060015184602001516040518363ffffffff1660e01b8152600401611aa8929190612b7c565b6020604051808303816000875af1158015611ac7573d6000803e3d6000fd5b505050506040513d601f19601f82011682018060405250810190611aeb9190612497565b611af457600080fd5b505b5050565b600080838060600190611b0d919061284f565b600090602092611b1f939291906128bc565b90611b2a9190612c11565b90506000848060600190611b3e919061284f565b602090604092611b50939291906128bc565b90611b5b9190612c11565b905060008060008481526020019081526020016000205403611b8257600192505050611ba3565b81611b8c82610c1f565b14611b9c57600192505050611ba3565b6000925050505b92915050565b6000808260e00135905060008361010001359050808203611bce578192505050611bdf565b611bda82488301611be4565b925050505b919050565b6000818310611bf35781611bf5565b825b905092915050565b6000819050919050565b611c1081611bfd565b82525050565b6000602082019050611c2b6000830184611c07565b92915050565b600080fd5b600080fd5b600080fd5b60006101608284031215611c5757611c56611c3b565b5b81905092915050565b600060208284031215611c7657611c75611c31565b5b600082013567ffffffffffffffff811115611c9457611c93611c36565b5b611ca084828501611c40565b91505092915050565b60008115159050919050565b611cbe81611ca9565b82525050565b6000602082019050611cd96000830184611cb5565b92915050565b6000819050919050565b611cf281611cdf565b8114611cfd57600080fd5b50565b600081359050611d0f81611ce9565b92915050565b611d1e81611bfd565b8114611d2957600080fd5b50565b600081359050611d3b81611d15565b92915050565b600080600060608486031215611d5a57611d59611c31565b5b600084013567ffffffffffffffff811115611d7857611d77611c36565b5b611d8486828701611c40565b9350506020611d9586828701611d00565b9250506040611da686828701611d2c565b9150509250925092565b600073ffffffffffffffffffffffffffffffffffffffff82169050919050565b6000611ddb82611db0565b9050919050565b611deb81611dd0565b8114611df657600080fd5b50565b600081359050611e0881611de2565b92915050565b600080600060608486031215611e2757611e26611c31565b5b6000611e3586828701611d00565b9350506020611e4686828701611d2c565b9250506040611e5786828701611df9565b9150509250925092565b600060208284031215611e7757611e76611c31565b5b6000611e8584828501611d00565b91505092915050565b6000611e9982611db0565b9050919050565b611ea981611e8e565b8114611eb457600080fd5b50565b600081359050611ec681611ea0565b92915050565b600080600080600060a08688031215611ee857611ee7611c31565b5b6000611ef688828901611d00565b9550506020611f0788828901611d2c565b9450506040611f1888828901611df9565b9350506060611f2988828901611eb7565b9250506080611f3a88828901611d2c565b9150509295509295909350565b611f5081611cdf565b82525050565b6000602082019050611f6b6000830184611f47565b92915050565b6000819050919050565b6000611f96611f91611f8c84611db0565b611f71565b611db0565b9050919050565b6000611fa882611f7b565b9050919050565b6000611fba82611f9d565b9050919050565b611fca81611faf565b82525050565b6000602082019050611fe56000830184611fc1565b92915050565b60007fffffffff0000000000000000000000000000000000000000000000000000000082169050919050565b61202081611feb565b82525050565b600060208201905061203b6000830184612017565b92915050565b61204a81611e8e565b82525050565b61205981611dd0565b82525050565b60006080820190506120746000830187612041565b6120816020830186611c07565b61208e6040830185612050565b61209b6060830184612050565b95945050505050565b600080604083850312156120bb576120ba611c31565b5b60006120c985828601611d00565b92505060206120da85828601611d00565b9150509250929050565b600082825260208201905092915050565b7f436f6d6d69746d656e7420616c7265616479206578697374732e000000000000600082015250565b600061212b601a836120e4565b9150612136826120f5565b602082019050919050565b6000602082019050818103600083015261215a8161211e565b9050919050565b7f54696d656c6f636b2076616c7565206d75737420626520696e2074686520667560008201527f747572652e000000000000000000000000000000000000000000000000000000602082015250565b60006121bd6025836120e4565b91506121c882612161565b604082019050919050565b600060208201905081810360008301526121ec816121b0565b9050919050565b7f496e76616c6964206d6573736167652076616c75652e00000000000000000000600082015250565b60006122296016836120e4565b9150612234826121f3565b602082019050919050565b600060208201905081810360008301526122588161221c565b9050919050565b7f5468652061646472657373206973206e6f7420612076616c696420455243323060008201527f20746f6b656e2e00000000000000000000000000000000000000000000000000602082015250565b60006122bb6027836120e4565b91506122c68261225f565b604082019050919050565b600060208201905081810360008301526122ea816122ae565b9050919050565b7f56616c7565206d757374206265206c6172676572207468616e20302e00000000600082015250565b6000612327601c836120e4565b9150612332826122f1565b602082019050919050565b600060208201905081810360008301526123568161231a565b9050919050565b60006040820190506123726000830185612041565b61237f6020830184612041565b9392505050565b60008151905061239581611d15565b92915050565b6000602082840312156123b1576123b0611c31565b5b60006123bf84828501612386565b91505092915050565b7f4e6f7420656e6f7567682062616c616e63652e00000000000000000000000000600082015250565b60006123fe6013836120e4565b9150612409826123c8565b602082019050919050565b6000602082019050818103600083015261242d816123f1565b9050919050565b60006060820190506124496000830186612041565b6124566020830185612041565b6124636040830184611c07565b949350505050565b61247481611ca9565b811461247f57600080fd5b50565b6000815190506124918161246b565b92915050565b6000602082840312156124ad576124ac611c31565b5b60006124bb84828501612482565b91505092915050565b7f5472616e73666572206661696c65642e00000000000000000000000000000000600082015250565b60006124fa6010836120e4565b9150612505826124c4565b602082019050919050565b60006020820190508181036000830152612529816124ed565b9050919050565b61253981611cdf565b82525050565b60006020820190506125546000830184612530565b92915050565b60008151905061256981611ce9565b92915050565b60006020828403121561258557612584611c31565b5b60006125938482850161255a565b91505092915050565b7f436f6d6d69746d656e7420646f6573206e6f742065786973742e000000000000600082015250565b60006125d2601a836120e4565b91506125dd8261259c565b602082019050919050565b60006020820190508181036000830152612601816125c5565b9050919050565b7f436f6d6d69746d656e7420686173206e6f7420657870697265642e0000000000600082015250565b600061263e601b836120e4565b915061264982612608565b602082019050919050565b6000602082019050818103600083015261266d81612631565b9050919050565b6000819050919050565b600077ffffffffffffffffffffffffffffffffffffffffffffffff82169050919050565b60006126bd6126b86126b384612674565b611f71565b61267e565b9050919050565b6126cd816126a2565b82525050565b60006040820190506126e86000830185612041565b6126f560208301846126c4565b9392505050565b7f436f6d6d69746d656e742068617320657870697265642e000000000000000000600082015250565b60006127326017836120e4565b915061273d826126fc565b602082019050919050565b6000602082019050818103600083015261276181612725565b9050919050565b7f496e76616c6964207365637265742e0000000000000000000000000000000000600082015250565b600061279e600f836120e4565b91506127a982612768565b602082019050919050565b600060208201905081810360008301526127cd81612791565b9050919050565b7f636f6d6d69746d656e7420646f6573206e6f7420657869737400000000000000600082015250565b600061280a6019836120e4565b9150612815826127d4565b602082019050919050565b60006020820190508181036000830152612839816127fd565b9050919050565b600080fd5b600080fd5b600080fd5b6000808335600160200384360303811261286c5761286b612840565b5b80840192508235915067ffffffffffffffff82111561288e5761288d612845565b5b6020830192506001820236038313156128aa576128a961284a565b5b509250929050565b600080fd5b600080fd5b600080858511156128d0576128cf6128b2565b5b838611156128e1576128e06128b7565b5b6001850283019150848603905094509492505050565b600082905092915050565b600082821b905092915050565b600061291b83836128f7565b826129268135611feb565b92506004821015612966576129617fffffffff0000000000000000000000000000000000000000000000000000000083600403600802612902565b831692505b505092915050565b7f47617320707269636520746f6f20686967680000000000000000000000000000600082015250565b60006129a46012836120e4565b91506129af8261296e565b602082019050919050565b600060208201905081810360008301526129d381612997565b9050919050565b7f6163636f756e743a206e6f742066726f6d20456e747279506f696e7400000000600082015250565b6000612a10601c836120e4565b9150612a1b826129da565b602082019050919050565b60006020820190508181036000830152612a3f81612a03565b9050919050565b600081905092915050565b50565b6000612a61600083612a46565b9150612a6c82612a51565b600082019050919050565b6000612a8282612a54565b9150819050919050565b7f4e487b7100000000000000000000000000000000000000000000000000000000600052601160045260246000fd5b6000612ac682611bfd565b9150612ad183611bfd565b9250828203905081811115612ae957612ae8612a8c565b5b92915050565b7f4661696c656420746f2073656e64204574686572000000000000000000000000600082015250565b6000612b256014836120e4565b9150612b3082612aef565b602082019050919050565b60006020820190508181036000830152612b5481612b18565b9050919050565b6000612b6682611f9d565b9050919050565b612b7681612b5b565b82525050565b6000604082019050612b916000830185612b6d565b612b9e6020830184611c07565b9392505050565b7f496e73756666696369656e74206665652e000000000000000000000000000000600082015250565b6000612bdb6011836120e4565b9150612be682612ba5565b602082019050919050565b60006020820190508181036000830152612c0a81612bce565b9050919050565b6000612c1d83836128f7565b82612c288135611cdf565b92506020821015612c6857612c637fffffffffffffffffffffffffffffffffffffffffffffffffffffffffffffffff83602003600802612902565b831692505b50509291505056fea26469706673582212202d4efeac65d73883e59987e10078e4ce34aaf5bf9a66cffe1401a8ef3f33019a64736f6c63430008120033",
  "linkReferences": {
    "contracts/lib/ECCommitment.sol": {
      "ECCommitment": [
        {
          "length": 20,
          "start": 3656
        }
      ]
    }
  },
  "deployedLinkReferences": {
    "contracts/lib/ECCommitment.sol": {
      "ECCommitment": [
        {
          "length": 20,
          "start": 3107
        }
      ]
    }
  }
}