{
  "_format": "hh-sol-artifact-1",
  "contractName": "ECCommitment",
  "sourceName": "contracts/lib/ECCommitment.sol",
  "abi": [
    {
      "inputs": [
        {
          "internalType": "uint256",
          "name": "x1",
          "type": "uint256"
        },
        {
          "internalType": "uint256",
          "name": "y1",
          "type": "uint256"
        },
        {
          "internalType": "uint256",
          "name": "z1",
          "type": "uint256"
        },
        {
          "internalType": "uint256",
          "name": "x2",
          "type": "uint256"
        },
        {
          "internalType": "uint256",
          "name": "y2",
          "type": "uint256"
        },
        {
          "internalType": "uint256",
          "name": "z2",
          "type": "uint256"
        }
      ],
      "name": "_ecAdd",
      "outputs": [
        {
          "internalType": "uint256",
          "name": "x3",
          "type": "uint256"
        },
        {
          "internalType": "uint256",
          "name": "y3",
          "type": "uint256"
        },
        {
          "internalType": "uint256",
          "name": "z3",
          "type": "uint256"
        }
      ],
      "stateMutability": "pure",
      "type": "function"
    },
    {
      "inputs": [
        {
          "internalType": "uint256",
          "name": "x1",
          "type": "uint256"
        },
        {
          "internalType": "uint256",
          "name": "y1",
          "type": "uint256"
        },
        {
          "internalType": "uint256",
          "name": "z1",
          "type": "uint256"
        }
      ],
      "name": "_ecDouble",
      "outputs": [
        {
          "internalType": "uint256",
          "name": "x3",
          "type": "uint256"
        },
        {
          "internalType": "uint256",
          "name": "y3",
          "type": "uint256"
        },
        {
          "internalType": "uint256",
          "name": "z3",
          "type": "uint256"
        }
      ],
      "stateMutability": "pure",
      "type": "function"
    },
    {
      "inputs": [
        {
          "internalType": "uint256",
          "name": "d",
          "type": "uint256"
        },
        {
          "internalType": "uint256",
          "name": "x1",
          "type": "uint256"
        },
        {
          "internalType": "uint256",
          "name": "y1",
          "type": "uint256"
        },
        {
          "internalType": "uint256",
          "name": "z1",
          "type": "uint256"
        }
      ],
      "name": "_ecMul",
      "outputs": [
        {
          "internalType": "uint256",
          "name": "x3",
          "type": "uint256"
        },
        {
          "internalType": "uint256",
          "name": "y3",
          "type": "uint256"
        },
        {
          "internalType": "uint256",
          "name": "z3",
          "type": "uint256"
        }
      ],
      "stateMutability": "pure",
      "type": "function"
    },
    {
      "inputs": [
        {
          "internalType": "uint256",
          "name": "val",
          "type": "uint256"
        }
      ],
      "name": "_inverse",
      "outputs": [
        {
          "internalType": "uint256",
          "name": "invVal",
          "type": "uint256"
        }
      ],
      "stateMutability": "pure",
      "type": "function"
    },
    {
      "inputs": [
        {
          "internalType": "uint256",
          "name": "x1",
          "type": "uint256"
        },
        {
          "internalType": "uint256",
          "name": "z1",
          "type": "uint256"
        },
        {
          "internalType": "uint256",
          "name": "x2",
          "type": "uint256"
        },
        {
          "internalType": "uint256",
          "name": "z2",
          "type": "uint256"
        }
      ],
      "name": "_jAdd",
      "outputs": [
        {
          "internalType": "uint256",
          "name": "x3",
          "type": "uint256"
        },
        {
          "internalType": "uint256",
          "name": "z3",
          "type": "uint256"
        }
      ],
      "stateMutability": "pure",
      "type": "function"
    },
    {
      "inputs": [
        {
          "internalType": "uint256",
          "name": "x1",
          "type": "uint256"
        },
        {
          "internalType": "uint256",
          "name": "z1",
          "type": "uint256"
        },
        {
          "internalType": "uint256",
          "name": "x2",
          "type": "uint256"
        },
        {
          "internalType": "uint256",
          "name": "z2",
          "type": "uint256"
        }
      ],
      "name": "_jDiv",
      "outputs": [
        {
          "internalType": "uint256",
          "name": "x3",
          "type": "uint256"
        },
        {
          "internalType": "uint256",
          "name": "z3",
          "type": "uint256"
        }
      ],
      "stateMutability": "pure",
      "type": "function"
    },
    {
      "inputs": [
        {
          "internalType": "uint256",
          "name": "x1",
          "type": "uint256"
        },
        {
          "internalType": "uint256",
          "name": "z1",
          "type": "uint256"
        },
        {
          "internalType": "uint256",
          "name": "x2",
          "type": "uint256"
        },
        {
          "internalType": "uint256",
          "name": "z2",
          "type": "uint256"
        }
      ],
      "name": "_jMul",
      "outputs": [
        {
          "internalType": "uint256",
          "name": "x3",
          "type": "uint256"
        },
        {
          "internalType": "uint256",
          "name": "z3",
          "type": "uint256"
        }
      ],
      "stateMutability": "pure",
      "type": "function"
    },
    {
      "inputs": [
        {
          "internalType": "uint256",
          "name": "x1",
          "type": "uint256"
        },
        {
          "internalType": "uint256",
          "name": "z1",
          "type": "uint256"
        },
        {
          "internalType": "uint256",
          "name": "x2",
          "type": "uint256"
        },
        {
          "internalType": "uint256",
          "name": "z2",
          "type": "uint256"
        }
      ],
      "name": "_jSub",
      "outputs": [
        {
          "internalType": "uint256",
          "name": "x3",
          "type": "uint256"
        },
        {
          "internalType": "uint256",
          "name": "z3",
          "type": "uint256"
        }
      ],
      "stateMutability": "pure",
      "type": "function"
    },
    {
      "inputs": [],
      "name": "a",
      "outputs": [
        {
          "internalType": "uint256",
          "name": "",
          "type": "uint256"
        }
      ],
      "stateMutability": "view",
      "type": "function"
    },
    {
      "inputs": [],
      "name": "b",
      "outputs": [
        {
          "internalType": "uint256",
          "name": "",
          "type": "uint256"
        }
      ],
      "stateMutability": "view",
      "type": "function"
    },
    {
      "inputs": [
        {
          "internalType": "uint256",
          "name": "qx",
          "type": "uint256"
        },
        {
          "internalType": "uint256",
          "name": "qy",
          "type": "uint256"
        }
      ],
      "name": "commitmentFromPoint",
      "outputs": [
        {
          "internalType": "bytes32",
          "name": "",
          "type": "bytes32"
        }
      ],
      "stateMutability": "pure",
      "type": "function"
    },
    {
      "inputs": [
        {
          "internalType": "bytes32",
          "name": "secret",
          "type": "bytes32"
        }
      ],
      "name": "commitmentFromSecret",
      "outputs": [
        {
          "internalType": "bytes32",
          "name": "",
          "type": "bytes32"
        }
      ],
      "stateMutability": "pure",
      "type": "function"
    },
    {
      "inputs": [
        {
          "internalType": "uint256",
          "name": "qx",
          "type": "uint256"
        },
        {
          "internalType": "uint256",
          "name": "qy",
          "type": "uint256"
        },
        {
          "internalType": "bytes32",
          "name": "sharedSecret",
          "type": "bytes32"
        }
      ],
      "name": "commitmentFromSharedSecret",
      "outputs": [
        {
          "internalType": "bytes32",
          "name": "",
          "type": "bytes32"
        }
      ],
      "stateMutability": "pure",
      "type": "function"
    },
    {
      "inputs": [
        {
          "internalType": "uint256",
          "name": "x1",
          "type": "uint256"
        },
        {
          "internalType": "uint256",
          "name": "y1",
          "type": "uint256"
        },
        {
          "internalType": "uint256",
          "name": "x2",
          "type": "uint256"
        },
        {
          "internalType": "uint256",
          "name": "y2",
          "type": "uint256"
        }
      ],
      "name": "ecadd",
      "outputs": [
        {
          "internalType": "uint256",
          "name": "x3",
          "type": "uint256"
        },
        {
          "internalType": "uint256",
          "name": "y3",
          "type": "uint256"
        }
      ],
      "stateMutability": "pure",
      "type": "function"
    },
    {
      "inputs": [
        {
          "internalType": "uint256",
          "name": "x1",
          "type": "uint256"
        },
        {
          "internalType": "uint256",
          "name": "y1",
          "type": "uint256"
        },
        {
          "internalType": "uint256",
          "name": "scalar",
          "type": "uint256"
        }
      ],
      "name": "ecmul",
      "outputs": [
        {
          "internalType": "uint256",
          "name": "x2",
          "type": "uint256"
        },
        {
          "internalType": "uint256",
          "name": "y2",
          "type": "uint256"
        }
      ],
      "stateMutability": "pure",
      "type": "function"
    },
    {
      "inputs": [],
      "name": "gx",
      "outputs": [
        {
          "internalType": "uint256",
          "name": "",
          "type": "uint256"
        }
      ],
      "stateMutability": "view",
      "type": "function"
    },
    {
      "inputs": [],
      "name": "gy",
      "outputs": [
        {
          "internalType": "uint256",
          "name": "",
          "type": "uint256"
        }
      ],
      "stateMutability": "view",
      "type": "function"
    },
    {
      "inputs": [],
      "name": "gyParity",
      "outputs": [
        {
          "internalType": "uint8",
          "name": "",
          "type": "uint8"
        }
      ],
      "stateMutability": "view",
      "type": "function"
    },
    {
      "inputs": [],
      "name": "n",
      "outputs": [
        {
          "internalType": "uint256",
          "name": "",
          "type": "uint256"
        }
      ],
      "stateMutability": "view",
      "type": "function"
    },
    {
      "inputs": [],
      "name": "q",
      "outputs": [
        {
          "internalType": "uint256",
          "name": "",
          "type": "uint256"
        }
      ],
      "stateMutability": "view",
      "type": "function"
    }
  ],
  "bytecode": "0x6114e8610053600b82828239805160001a607314610046577f4e487b7100000000000000000000000000000000000000000000000000000000600052600060045260246000fd5b30600052607381538281f3fe73000000000000000000000000000000000000000030146080604052600436106101365760003560e01c806382e8c787116100b7578063a3321a421161007b578063a3321a42146103a6578063bb8c256a146103d6578063db31883314610407578063f47289e114610439578063fd3ab2821461046b57610136565b806382e8c787146102c65780638cecf66e146102f6578063913f424c146103265780639840f54414610358578063a1d6fb141461037657610136565b80632e52d606116100fe5780632e52d606146101f75780634df7e3d0146102155780635b764811146102335780635f972df8146102645780638081a1e71461029557610136565b80630138e31b1461013b57806306c91ce31461016c5780630dbe671f1461018a5780631ecfe64d146101a85780632d58c9a2146101d9575b600080fd5b61015560048036038101906101509190610f60565b610489565b604051610163929190610fd6565b60405180910390f35b610174610563565b6040516101819190610fff565b60405180910390f35b610192610587565b60405161019f9190610fff565b60405180910390f35b6101c260048036038101906101bd9190610f60565b61058c565b6040516101d0929190610fd6565b60405180910390f35b6101e1610691565b6040516101ee9190610fff565b60405180910390f35b6101ff6106b5565b60405161020c9190610fff565b60405180910390f35b61021d6106d9565b60405161022a9190610fff565b60405180910390f35b61024d60048036038101906102489190610f60565b6106de565b60405161025b929190610fd6565b60405180910390f35b61027e60048036038101906102799190610f60565b610756565b60405161028c929190610fd6565b60405180910390f35b6102af60048036038101906102aa919061101a565b6107ce565b6040516102bd929190610fd6565b60405180910390f35b6102e060048036038101906102db919061106d565b610868565b6040516102ed91906110c6565b60405180910390f35b610310600480360381019061030b91906110e1565b6108b7565b60405161031d9190610fff565b60405180910390f35b610340600480360381019061033b9190610f60565b6109d0565b60405161034f9392919061110e565b60405180910390f35b610360610a8b565b60405161036d9190611161565b60405180910390f35b610390600480360381019061038b91906111a8565b610a90565b60405161039d91906110c6565b60405180910390f35b6103c060048036038101906103bb91906111d5565b610b82565b6040516103cd91906110c6565b60405180910390f35b6103f060048036038101906103eb9190610f60565b610c03565b6040516103fe929190610fd6565b60405180910390f35b610421600480360381019061041c9190611228565b610ca1565b6040516104309392919061110e565b60405180910390f35b610453600480360381019061044e919061101a565b610ed9565b6040516104629392919061110e565b60405180910390f35b610473610f01565b6040516104809190610fff565b60405180910390f35b6000807ffffffffffffffffffffffffffffffffffffffffffffffffffffffffefffffc2f806104bb576104ba6112b5565b5b7ffffffffffffffffffffffffffffffffffffffffffffffffffffffffefffffc2f806104ea576104e96112b5565b5b8686097ffffffffffffffffffffffffffffffffffffffffffffffffffffffffefffffc2f8061051c5761051b6112b5565b5b888609087ffffffffffffffffffffffffffffffffffffffffffffffffffffffffefffffc2f8061054f5761054e6112b5565b5b848709809250819350505094509492505050565b7f79be667ef9dcbbac55a06295ce870b07029bfcdb2dce28d959f2815b16f8179881565b600081565b6000807ffffffffffffffffffffffffffffffffffffffffffffffffffffffffefffffc2f806105be576105bd6112b5565b5b7ffffffffffffffffffffffffffffffffffffffffffffffffffffffffefffffc2f806105ed576105ec6112b5565b5b86867ffffffffffffffffffffffffffffffffffffffffffffffffffffffffefffffc2f61061a9190611313565b097ffffffffffffffffffffffffffffffffffffffffffffffffffffffffefffffc2f8061064a576106496112b5565b5b888609087ffffffffffffffffffffffffffffffffffffffffffffffffffffffffefffffc2f8061067d5761067c6112b5565b5b848709809250819350505094509492505050565b7f483ada7726a3c4655da4fbfc0e1108a8fd17b448a68554199c47d08ffb10d4b881565b7ffffffffffffffffffffffffffffffffffffffffffffffffffffffffefffffc2f81565b600781565b6000807ffffffffffffffffffffffffffffffffffffffffffffffffffffffffefffffc2f806107105761070f6112b5565b5b8487097ffffffffffffffffffffffffffffffffffffffffffffffffffffffffefffffc2f80610742576107416112b5565b5b848709809250819350505094509492505050565b6000807ffffffffffffffffffffffffffffffffffffffffffffffffffffffffefffffc2f80610788576107876112b5565b5b8387097ffffffffffffffffffffffffffffffffffffffffffffffffffffffffefffffc2f806107ba576107b96112b5565b5b858709809250819350505094509492505050565b60008060006107e084878760016109d0565b8093508194508295505050506107f5816108b7565b90507ffffffffffffffffffffffffffffffffffffffffffffffffffffffffefffffc2f80610826576108256112b5565b5b81840992507ffffffffffffffffffffffffffffffffffffffffffffffffffffffffefffffc2f8061085a576108596112b5565b5b818309915050935093915050565b600073ffffffffffffffffffffffffffffffffffffffff8383604051602001610892929190611368565b6040516020818303038152906040528051906020012060001c1660001b905092915050565b6000806000905060006001905060007ffffffffffffffffffffffffffffffffffffffffffffffffffffffffefffffc2f9050600085905060005b600082146109c35781836109059190611394565b9050837ffffffffffffffffffffffffffffffffffffffffffffffffffffffffefffffc2f80610937576109366112b5565b5b7ffffffffffffffffffffffffffffffffffffffffffffffffffffffffefffffc2f80610966576109656112b5565b5b8684097ffffffffffffffffffffffffffffffffffffffffffffffffffffffffefffffc2f6109949190611313565b870880955081965050508182826109ab91906113c5565b846109b69190611313565b80935081945050506108f1565b8495505050505050919050565b60008060008087905060008790506000879050600087905060008060006001905060008e03610a1057600080600199509950995050505050505050610a81565b5b60008714610a6a5760006001881614610a3f57610a32838383898989610ca1565b8093508194508295505050505b600287610a4c9190611394565b9650610a59868686610ed9565b809650819750829850505050610a11565b828282809a50819b50829c50505050505050505050505b9450945094915050565b601b81565b60008060016000601b7f79be667ef9dcbbac55a06295ce870b07029bfcdb2dce28d959f2815b16f8179860001b7ffffffffffffffffffffffffffffffffebaaedce6af48a03bbfd25e8cd036414180610aec57610aeb6112b5565b5b7f79be667ef9dcbbac55a06295ce870b07029bfcdb2dce28d959f2815b16f817988860001c0960001b60405160008152602001604052604051610b32949392919061146d565b6020604051602081039080840390855afa158015610b54573d6000803e3d6000fd5b5050506020604051035190508073ffffffffffffffffffffffffffffffffffffffff1660001b915050919050565b6000806000610bd57f79be667ef9dcbbac55a06295ce870b07029bfcdb2dce28d959f2815b16f817987f483ada7726a3c4655da4fbfc0e1108a8fd17b448a68554199c47d08ffb10d4b88660001c6107ce565b91509150600080610be888888686610c03565b91509150610bf68282610868565b9450505050509392505050565b6000806000610c188787600188886001610ca1565b809350819450829550505050610c2d816108b7565b90507ffffffffffffffffffffffffffffffffffffffffffffffffffffffffefffffc2f80610c5e57610c5d6112b5565b5b81840992507ffffffffffffffffffffffffffffffffffffffffffffffffffffffffefffffc2f80610c9257610c916112b5565b5b81830991505094509492505050565b6000806000806000806000808d148015610cbb575060008c145b15610cd25789898996509650965050505050610ecd565b60008a148015610ce25750600089145b15610cf9578c8c8c96509650965050505050610ecd565b898d148015610d075750888c145b15610d6757610d188d8c8f8e6106de565b8094508195505050610d2e8484600360016106de565b8094508195505050610d44848460006001610489565b8094508195505050610d5a8c8c600260016106de565b8092508193505050610d90565b610d7389898e8e61058c565b8094508195505050610d878a898f8e61058c565b80925081935050505b610d9c84848484610756565b8094508195505050610db0848486866106de565b8093508198505050610dc487838f8e61058c565b8093508198505050610dd887838c8b61058c565b8093508198505050610dec8d8c898561058c565b8092508197505050610e00868286866106de565b8092508197505050610e1486828e8e61058c565b8092508197505050808214610ec4577ffffffffffffffffffffffffffffffffffffffffffffffffffffffffefffffc2f80610e5257610e516112b5565b5b81880996507ffffffffffffffffffffffffffffffffffffffffffffffffffffffffefffffc2f80610e8657610e856112b5565b5b82870995507ffffffffffffffffffffffffffffffffffffffffffffffffffffffffefffffc2f80610eba57610eb96112b5565b5b8183099450610ec8565b8194505b505050505b96509650969350505050565b6000806000610eec868686898989610ca1565b80935081945082955050505093509350939050565b7ffffffffffffffffffffffffffffffffebaaedce6af48a03bbfd25e8cd036414181565b600080fd5b6000819050919050565b610f3d81610f2a565b8114610f4857600080fd5b50565b600081359050610f5a81610f34565b92915050565b60008060008060808587031215610f7a57610f79610f25565b5b6000610f8887828801610f4b565b9450506020610f9987828801610f4b565b9350506040610faa87828801610f4b565b9250506060610fbb87828801610f4b565b91505092959194509250565b610fd081610f2a565b82525050565b6000604082019050610feb6000830185610fc7565b610ff86020830184610fc7565b9392505050565b60006020820190506110146000830184610fc7565b92915050565b60008060006060848603121561103357611032610f25565b5b600061104186828701610f4b565b935050602061105286828701610f4b565b925050604061106386828701610f4b565b9150509250925092565b6000806040838503121561108457611083610f25565b5b600061109285828601610f4b565b92505060206110a385828601610f4b565b9150509250929050565b6000819050919050565b6110c0816110ad565b82525050565b60006020820190506110db60008301846110b7565b92915050565b6000602082840312156110f7576110f6610f25565b5b600061110584828501610f4b565b91505092915050565b60006060820190506111236000830186610fc7565b6111306020830185610fc7565b61113d6040830184610fc7565b949350505050565b600060ff82169050919050565b61115b81611145565b82525050565b60006020820190506111766000830184611152565b92915050565b611185816110ad565b811461119057600080fd5b50565b6000813590506111a28161117c565b92915050565b6000602082840312156111be576111bd610f25565b5b60006111cc84828501611193565b91505092915050565b6000806000606084860312156111ee576111ed610f25565b5b60006111fc86828701610f4b565b935050602061120d86828701610f4b565b925050604061121e86828701611193565b9150509250925092565b60008060008060008060c0878903121561124557611244610f25565b5b600061125389828a01610f4b565b965050602061126489828a01610f4b565b955050604061127589828a01610f4b565b945050606061128689828a01610f4b565b935050608061129789828a01610f4b565b92505060a06112a889828a01610f4b565b9150509295509295509295565b7f4e487b7100000000000000000000000000000000000000000000000000000000600052601260045260246000fd5b7f4e487b7100000000000000000000000000000000000000000000000000000000600052601160045260246000fd5b600061131e82610f2a565b915061132983610f2a565b9250828203905081811115611341576113406112e4565b5b92915050565b6000819050919050565b61136261135d82610f2a565b611347565b82525050565b60006113748285611351565b6020820191506113848284611351565b6020820191508190509392505050565b600061139f82610f2a565b91506113aa83610f2a565b9250826113ba576113b96112b5565b5b828204905092915050565b60006113d082610f2a565b91506113db83610f2a565b92508282026113e981610f2a565b91508282048414831517611400576113ff6112e4565b5b5092915050565b6000819050919050565b60008160001b9050919050565b600061143961143461142f84611407565b611411565b6110ad565b9050919050565b6114498161141e565b82525050565b61145881611145565b82525050565b611467816110ad565b82525050565b60006080820190506114826000830187611440565b61148f602083018661144f565b61149c604083018561145e565b6114a9606083018461145e565b9594505050505056fea26469706673582212203e4bfd91ffd2f169a6c7bae059891fd2339dd70fee50fa61fdd40e419d0c643d64736f6c63430008120033",
  "linkReferences": {},
  "deployedLinkReferences": {}
}